:060000000A128A110C280F
:10000800FE00030EF2000A08F3000A128A111528EE
:100018000A128A110F28F601F70183010A128A11C0
:10002800F428831203130C1F1A281B2885281F0C79
:10003800F000700C0F39003A031D232824284928A2
:100048001E08F0000310700C7C3E95001E08013954
:10005800F000F00EF00D17087006DF3970069700F3
:10006800831603131E08F00007300310F00CFF3E40
:10007800031D39287008F100F10E831203131708C5
:100088007106EF397106970084281F0CF000700C78
:100098000F39013A031D5128522877281E08F0000D
:1000A8000310700C7C3E9B001E080139F000F00E16
:1000B800F00D1D087006DF3970069D0083160313C6
:1000C8001E08F00007300310F00CFF3E031D6728E0
:1000D8007008F100F10E831203131D087106EF3941
:1000E80071069D0084281F0CF000700C0F39023A2D
:1000F800031D7F28802884281E08F60076088800BB
:100108000C130B1D882889289128FA30810077085C
:10011800193EF700770886000B1173088A00720EE3
:100128008300FE0E7E0E0900073083160317880031
:100138008901FF3083160313850087118601880122
:1001480070308F040F140108F839043881008111C8
:100158008112FA30831203138100831603139F134D
:100168001F129F12831203131F083F3980389F0004
:10017800C3309F051F142130F400F40BC1288316E7
:10018800031307158714FF3092003F3083120313BF
:1001980097051708F0390C3897001D08F0390C3806
:1001A8009D000F309500CF3097050F309B001D1232
:1001B8009D128C100330920412158C1CE428E5283B
:1001C800E1288C1083160313071187108312031379
:1001D8000C13831603130C170B178B168B170800B9
:1001E8000A128A1198200A128A11831203139F1483
:1001F8009F18FF2800292E291F0CF500750C0F39B0
:10020800003A031D082909290E291F08C339043893
:100218009F0027291F0CF500750C0F39013A031DA3
:10022800162917291C291F08C33908389F002729B0
:100238001F0CF500750C0F39023A031D24292529D6
:100248002729C3309F052130F500F50B2929831292
:1002580003139F14770876020318332934293629A3
:0E0268008711FC288715FC280A128A110C2821
:08400000FF3FFF3FFF3FFF3FC0
:04400E00D520FF3F7B
:00000001FF
