:060000000A128A110C280F
:10000800FE00030EF3000A08F4000A128A1174288D
:100018000A128A110F28F001F101F20183010A1274
:100028008A11A828831603130F178F120F120F14A3
:10003800831603178814831603138514831603176E
:100048000815831603130515880189018312031304
:10005800880189018316031381128111011181100E
:1000680001100A128A11B7200A128A118312031387
:100078009215121292121217831603139F131F124E
:100088009F12831203139F131F139F121F129F1196
:100098001F151F148B178B16831603130C170715C0
:1000A8007C309200831203131710971017159715B9
:1000B800171397137D309500971217120A128A1199
:1000C800C3200A128A1183120313121092141215F4
:1000D8008C1C6F2870286C288316031307150800DA
:1000E8000B1D7728782880280A128A11BD200A1249
:1000F8008A11831203139F14831203130C1F85287C
:100108008628A1281F1D89288A288C281F118D2838
:100118001F159F1D9028912893289F1194289F159B
:100128009F1D972898289A281E08F1001F1D9D28B2
:100138009E28A0281E08F0000C1374088A00730E6D
:100148008300FE0E7E0E09000A128A1116200A127A
:100158008A11710883120313880070089500AD286E
:100168000A128A110C2883308312031381000B11A1
:10017800080083308312031381000B1108008312D7
:0601880003138C100800B7
:08400000FF3FFF3FFF3FFF3FC0
:04400E00D420FF3F7C
:00000001FF
