:060000000A128A110C280F
:10000800FE00030EF3000A08F4000A128A116B2896
:100018000A128A110F28F001F101F20183010A1274
:100028008A119F2883160313051083160317881453
:1000380083160313851483160317081583160313F1
:1000480005150711880189018312031387018801A7
:100058008901831603130F178F120F120F148112C1
:1000680081110111811001100A128A11C1200A128E
:100078008A118312031312109214921512129212FB
:10008800121712117C308316031392000A128A1178
:10009800CD200A128A118B178B16831603130C179F
:1000A8009F131F129F12831203139F131F139F1274
:1000B8001F129F111F151F1417109710171597154A
:1000C800171397137D3095001712971208000B1D10
:1000D8006E286F2877280A128A11C7200A128A11F7
:1000E800831203139F14831203130C1F7C287D288B
:1000F80098281F1D8028812883281F1184281F15F0
:100108009F1D872888288A289F118B289F159F1D47
:100118008E288F2891281E08F1001F1D94289528E5
:1001280097281E08F0000C1374088A00730E8300C9
:10013800FE0E7E0E09000A128A1116200A128A1172
:10014800831203138C1CA928AA28B3288316031327
:1001580007110A128A11CD200A128A11B9288316AA
:10016800031307158312031312157108831203135F
:100178008800A4280A128A110C28833083120313DA
:1001880081000B11080083308312031381000B11C7
:0A0198000800831203138C10080006
:08400000FF3FFF3FFF3FFF3FC0
:04400E00D420FF3F7C
:00000001FF
