:060000000A128A110C280F
:10000800FE00030EF3000A08F4000A128A114F28B2
:100018000A128A110F28F001F101F20183010A1274
:100028008A1183288316031305108316031788146F
:1000380083160313851483160317081583160313F1
:100048000515870188018901831203138701880137
:100058008901831603130F178F120F120F148112C1
:1000680081110111811001100A128A1192200A12BD
:100078008A118B178B16831603130C179F131F12E5
:100088009F12831203139F131F139F121F129F1196
:100098001F151F1408000B1D522853285B280A122D
:1000A8008A1198200A128A11831203139F1483124B
:1000B80003130C1F602861287C281F1D64286528ED
:1000C80067281F1168281F159F1D6B286C286E282C
:1000D8009F116F289F159F1D7228732875281E0869
:1000E800F1001F1D782879287B281E08F0000C13C2
:1000F80074088A00730E8300FE0E7E0E09000A1231
:100108008A1116200A128A117108831203138700B4
:100118007008880088280A128A110C2883308312F4
:10012800031381000B11080083308312031381002D
:040138000B1108009F
:08400000FF3FFF3FFF3FFF3FC0
:04400E00D420FF3F7C
:00000001FF
